{
  "contractName": "KraczkowskyMarketplace",
  "abi": [
    {
      "inputs": [
        {
          "internalType": "address",
          "name": "_tokenContract",
          "type": "address"
        }
      ],
      "payable": false,
      "stateMutability": "nonpayable",
      "type": "constructor"
    },
    {
      "constant": true,
      "inputs": [
        {
          "internalType": "address",
          "name": "",
          "type": "address"
        }
      ],
      "name": "gifts",
      "outputs": [
        {
          "internalType": "uint256",
          "name": "",
          "type": "uint256"
        }
      ],
      "payable": false,
      "stateMutability": "view",
      "type": "function"
    },
    {
      "constant": true,
      "inputs": [],
      "name": "tokenContract",
      "outputs": [
        {
          "internalType": "contract KraczkowskyToken",
          "name": "",
          "type": "address"
        }
      ],
      "payable": false,
      "stateMutability": "view",
      "type": "function"
    },
    {
      "constant": true,
      "inputs": [
        {
          "internalType": "string",
          "name": "",
          "type": "string"
        }
      ],
      "name": "users",
      "outputs": [
        {
          "internalType": "address",
          "name": "",
          "type": "address"
        }
      ],
      "payable": false,
      "stateMutability": "view",
      "type": "function"
    },
    {
      "constant": false,
      "inputs": [
        {
          "internalType": "string",
          "name": "_userName",
          "type": "string"
        },
        {
          "internalType": "address",
          "name": "_userAddress",
          "type": "address"
        }
      ],
      "name": "register",
      "outputs": [],
      "payable": false,
      "stateMutability": "nonpayable",
      "type": "function"
    },
    {
      "constant": false,
      "inputs": [
        {
          "internalType": "address",
          "name": "_tokenContract",
          "type": "address"
        }
      ],
      "name": "addToken",
      "outputs": [],
      "payable": false,
      "stateMutability": "nonpayable",
      "type": "function"
    },
    {
      "constant": false,
      "inputs": [
        {
          "internalType": "address",
          "name": "_provider",
          "type": "address"
        },
        {
          "internalType": "uint256",
          "name": "_giftAmount",
          "type": "uint256"
        }
      ],
      "name": "purchaseGift",
      "outputs": [],
      "payable": false,
      "stateMutability": "nonpayable",
      "type": "function"
    },
    {
      "constant": false,
      "inputs": [],
      "name": "receivePayment",
      "outputs": [],
      "payable": true,
      "stateMutability": "payable",
      "type": "function"
    }
  ],
  "bytecode": "0x608060405234801561001057600080fd5b50604051610a21380380610a218339818101604052602081101561003357600080fd5b8101908080519060200190929190505050806000806101000a81548173ffffffffffffffffffffffffffffffffffffffff021916908373ffffffffffffffffffffffffffffffffffffffff1602179055505061098d806100946000396000f3fe6080604052600436106100705760003560e01c8063835c19f31161004e578063835c19f3146102bc578063a6875bfe146102c6578063d48bfca71461032b578063e18aeba71461037c57610070565b80631e59c5291461007557806355a373d61461015d578063689e1c03146101b4575b600080fd5b34801561008157600080fd5b5061015b6004803603604081101561009857600080fd5b81019080803590602001906401000000008111156100b557600080fd5b8201836020820111156100c757600080fd5b803590602001918460018302840111640100000000831117156100e957600080fd5b91908080601f016020809104026020016040519081016040528093929190818152602001838380828437600081840152601f19601f820116905080830192505050505050509192919290803573ffffffffffffffffffffffffffffffffffffffff1690602001909291905050506103d7565b005b34801561016957600080fd5b50610172610483565b604051808273ffffffffffffffffffffffffffffffffffffffff1673ffffffffffffffffffffffffffffffffffffffff16815260200191505060405180910390f35b3480156101c057600080fd5b5061027a600480360360208110156101d757600080fd5b81019080803590602001906401000000008111156101f457600080fd5b82018360208201111561020657600080fd5b8035906020019184600183028401116401000000008311171561022857600080fd5b91908080601f016020809104026020016040519081016040528093929190818152602001838380828437600081840152601f19601f8201169050808301925050505050505091929192905050506104a8565b604051808273ffffffffffffffffffffffffffffffffffffffff1673ffffffffffffffffffffffffffffffffffffffff16815260200191505060405180910390f35b6102c46104f1565b005b3480156102d257600080fd5b50610315600480360360208110156102e957600080fd5b81019080803573ffffffffffffffffffffffffffffffffffffffff169060200190929190505050610616565b6040518082815260200191505060405180910390f35b34801561033757600080fd5b5061037a6004803603602081101561034e57600080fd5b81019080803573ffffffffffffffffffffffffffffffffffffffff16906020019092919050505061062e565b005b34801561038857600080fd5b506103d56004803603604081101561039f57600080fd5b81019080803573ffffffffffffffffffffffffffffffffffffffff16906020019092919080359060200190929190505050610671565b005b806001836040518082805190602001908083835b6020831061040e57805182526020820191506020810190506020830392506103eb565b6001836020036101000a038019825116818451168082178552505050505050905001915050908152602001604051809103902060006101000a81548173ffffffffffffffffffffffffffffffffffffffff021916908373ffffffffffffffffffffffffffffffffffffffff1602179055505050565b6000809054906101000a900473ffffffffffffffffffffffffffffffffffffffff1681565b6001818051602081018201805184825260208301602085012081835280955050505050506000915054906101000a900473ffffffffffffffffffffffffffffffffffffffff1681565b6000809054906101000a900473ffffffffffffffffffffffffffffffffffffffff1673ffffffffffffffffffffffffffffffffffffffff1663a9059cbb33600260003373ffffffffffffffffffffffffffffffffffffffff1673ffffffffffffffffffffffffffffffffffffffff168152602001908152602001600020546040518363ffffffff1660e01b8152600401808373ffffffffffffffffffffffffffffffffffffffff1673ffffffffffffffffffffffffffffffffffffffff16815260200182815260200192505050602060405180830381600087803b1580156105d857600080fd5b505af11580156105ec573d6000803e3d6000fd5b505050506040513d602081101561060257600080fd5b810190808051906020019092919050505050565b60026020528060005260406000206000915090505481565b806000806101000a81548173ffffffffffffffffffffffffffffffffffffffff021916908373ffffffffffffffffffffffffffffffffffffffff16021790555050565b806000809054906101000a900473ffffffffffffffffffffffffffffffffffffffff1673ffffffffffffffffffffffffffffffffffffffff166370a08231336040518263ffffffff1660e01b8152600401808273ffffffffffffffffffffffffffffffffffffffff1673ffffffffffffffffffffffffffffffffffffffff16815260200191505060206040518083038186803b15801561071057600080fd5b505afa158015610724573d6000803e3d6000fd5b505050506040513d602081101561073a57600080fd5b810190808051906020019092919050505010156107a2576040517f08c379a00000000000000000000000000000000000000000000000000000000081526004018080602001828103825260568152602001806109036056913960600191505060405180910390fd5b80600260008473ffffffffffffffffffffffffffffffffffffffff1673ffffffffffffffffffffffffffffffffffffffff168152602001908152602001600020819055506000809054906101000a900473ffffffffffffffffffffffffffffffffffffffff1673ffffffffffffffffffffffffffffffffffffffff166323b872dd3384846040518463ffffffff1660e01b8152600401808473ffffffffffffffffffffffffffffffffffffffff1673ffffffffffffffffffffffffffffffffffffffff1681526020018373ffffffffffffffffffffffffffffffffffffffff1673ffffffffffffffffffffffffffffffffffffffff1681526020018281526020019350505050602060405180830381600087803b1580156108c257600080fd5b505af11580156108d6573d6000803e3d6000fd5b505050506040513d60208110156108ec57600080fd5b810190808051906020019092919050505050505056fe4552524f522028707572636861736547696674293a20596f7520646f206e6f74206861766520656e6f756768204b525a20746f6b656e7320746f20636f6d706c657465732074686973207472616e73616374696f6e21a265627a7a72315820d269d71eaad88abef20937f31bbc8ac80e1406d0115aa88bb22282c97a4426c864736f6c63430005100032",
  "source": "pragma solidity >=0.4.21 <0.7.0;\n\ncontract KraczkowskyToken{\n  string public name = \"Kraczkowsky Token\";\n  string public symbol = \"KRZ\";\n  string public standard = \"Kraczkowsky Token v1.0\";\n  uint256 public totalSupply;\n// Store the balance of each account that owns tokens using an address as a key and uint as value\n  mapping(address => uint256) public balanceOf;\n// See how much the account is allowed to spend using an address as key + second address as value that maps to a uint\n  mapping(address => mapping(address => uint256)) public allowance;\n// Emit event when a transfer is made\n  event Transfer(\n    address indexed _from,\n    address indexed _to,\n    uint256 _value\n  );\n// Emit event when a spend has been approved\n  event Approval(\n    address indexed owner,\n    address indexed spender,\n    uint256 _value\n  );\n\n  constructor (uint256 _initialSupply) public {\n    balanceOf[msg.sender] = _initialSupply;\n    totalSupply = _initialSupply;\n  }\n// implement a transfer function (per standard) to allow users to send tokens to another account\n  function transfer(address _to, uint256 _numTokens) public returns (bool success){\n    require(\n      balanceOf[msg.sender] >= _numTokens,\n      'ERROR (transfer): You do not have enough KRZ tokens to complete this transaction!'\n    );\n\n    balanceOf[msg.sender] -= _numTokens;\n    balanceOf[_to] += _numTokens;\n\n    emit Transfer(msg.sender, _to, _numTokens);\n\n    return true;\n  }\n// implement an approve function (per standard) that allows another account to spend tokens, like on a cryptocurrency exchange.\nfunction approve(address _delegate, uint256 _numTokens) public returns (bool success){\n    allowance[msg.sender][_delegate] = _numTokens;\n\n    emit Approval(msg.sender, _delegate, _numTokens);\n\n    return true;\n  }\n// implement a transferFrom function (per standard) to establish a withdraw workflow, allowing contracts to transfer tokens on your behalf.\n  function transferFrom(address _from, address _to, uint256 _value) public returns (bool success){\n    require(\n      _value <= balanceOf[_from],\n      \"REVERT: Balance of sending account has insufficient funds for this transfer!\"\n    );\n    require(\n      _value <= allowance[_from][msg.sender],\n      \"REVERT: You have not allowed this address to transfer this many tokens!\"\n    );\n\n    balanceOf[_from] -= _value;\n    balanceOf[_to] += _value;\n\n    //allowance[_from];\n\n  //  emit Transfer(_from, _to, _value);\n\n    return true;\n  }\n}\n\n\ncontract KraczkowskyMarketplace {\n// Consumers should be able to exchange\n  KraczkowskyToken public tokenContract;\n\n  mapping(string => address) public users;\n  mapping(address => uint256) public gifts;\n\n  function register (string memory _userName, address _userAddress) public {\n    users[_userName] = _userAddress;\n  }\n\n  constructor (address _tokenContract) public {\n    tokenContract = KraczkowskyToken(_tokenContract);\n  }\n\n  function addToken(address _tokenContract) public {\n    tokenContract = KraczkowskyToken(_tokenContract);\n  }\n\n// Purchaser transfers gift amount to gift provider\n  function purchaseGift (address _provider, uint256 _giftAmount) public {\n    require(\n      tokenContract.balanceOf(msg.sender) >= _giftAmount,\n      'ERROR (purchaseGift): You do not have enough KRZ tokens to completes this transaction!'\n    );\n\n    gifts[_provider] = _giftAmount;\n\n    tokenContract.transferFrom(msg.sender, _provider, _giftAmount);\n  }\n\n  function receivePayment () payable external {\n    tokenContract.transfer(msg.sender, gifts[msg.sender]);\n  }\n}\n",
  "sourcePath": "/Users/Home/github/erc20-token-ethereum-family/contracts/KraczkowskyCrypto.sol",
  "compiler": {
    "name": "solc",
    "version": "0.5.16+commit.9c3226ce.Emscripten.clang"
  },
  "schemaVersion": "3.3.2",
  "updatedAt": "2020-12-29T20:25:15.174Z",
  "networkType": "ethereum",
  "devdoc": {
    "methods": {}
  },
  "userdoc": {
    "methods": {}
  }
}